{
  "contractName": "TokenManager",
  "abi": [
    {
      "inputs": [
        {
          "name": "__address",
          "type": "address"
        }
      ],
      "payable": false,
      "stateMutability": "nonpayable",
      "type": "constructor"
    },
    {
      "constant": false,
      "inputs": [
        {
          "name": "to",
          "type": "address"
        }
      ],
      "name": "addMinter",
      "outputs": [],
      "payable": false,
      "stateMutability": "nonpayable",
      "type": "function"
    },
    {
      "constant": true,
      "inputs": [],
      "name": "getManagebleContract",
      "outputs": [
        {
          "name": "contractAddress",
          "type": "address"
        }
      ],
      "payable": false,
      "stateMutability": "view",
      "type": "function"
    }
  ],
  "bytecode": "0x608060405234801561001057600080fd5b506040516020806102ac8339810180604052602081101561003057600080fd5b8101908080519060200190929190505050806000806101000a81548173ffffffffffffffffffffffffffffffffffffffff021916908373ffffffffffffffffffffffffffffffffffffffff16021790555080600160006101000a81548173ffffffffffffffffffffffffffffffffffffffff021916908373ffffffffffffffffffffffffffffffffffffffff160217905550506101da806100d26000396000f3fe608060405234801561001057600080fd5b50600436106100365760003560e01c8063983b2d561461003b578063a49263051461007f575b600080fd5b61007d6004803603602081101561005157600080fd5b81019080803573ffffffffffffffffffffffffffffffffffffffff1690602001909291905050506100c9565b005b610087610184565b604051808273ffffffffffffffffffffffffffffffffffffffff1673ffffffffffffffffffffffffffffffffffffffff16815260200191505060405180910390f35b6000809054906101000a900473ffffffffffffffffffffffffffffffffffffffff1673ffffffffffffffffffffffffffffffffffffffff1663983b2d56826040518263ffffffff1660e01b8152600401808273ffffffffffffffffffffffffffffffffffffffff1673ffffffffffffffffffffffffffffffffffffffff168152602001915050600060405180830381600087803b15801561016957600080fd5b505af115801561017d573d6000803e3d6000fd5b5050505050565b6000600160009054906101000a900473ffffffffffffffffffffffffffffffffffffffff1690509056fea165627a7a723058208d82af9170b73d072c5906b422d27c6e196e20b82f092084b8515f3a8e50549c0029",
  "source": "pragma solidity ^0.5.8;\n\nimport \"./ERC721MetadataMintable.sol\";\n\ncontract TokenManager {\n    ERC721MetadataMintable managebleContract;\n    address _address;\n\n    constructor (address __address) public {\n        managebleContract = ERC721MetadataMintable(__address);\n\n        _address = __address;\n        // TODO check me - why doesnot work\n        // addMinter(address(this));\n    }\n\n    // TODO only owner\n    function addMinter(address to) public {\n        managebleContract.addMinter(to);\n    }\n\n    // for tests only\n    function getManagebleContract() public view returns (address contractAddress){\n        return _address;\n    }\n}\n",
  "sourcePath": "/Users/plcgi1/www/dapp-ipfs-policy/contracts/TokenManager.sol",
  "compiler": {
    "name": "solc",
    "version": "0.5.8+commit.23d335f2.Emscripten.clang"
  },
  "schemaVersion": "3.0.15",
  "updatedAt": "2019-09-17T20:27:07.995Z",
  "devdoc": {
    "methods": {}
  },
  "userdoc": {
    "methods": {}
  }
}